:020000040800F2
:100000000028002055080008F9070008FF0700082D
:10001000050800080B08000811080008000000008F
:1000200000000000000000000000000017080008A9
:1000300023080008000000002F0800083B08000803
:100040009D0800089D0800089D0800089D080008FC
:100050009D0800089D0800089D0800089D080008EC
:100060009D0800089D0800089D0800089D080008DC
:100070009D0800089D0800089D0800089D080008CC
:100080009D0800089D0800089D0800089D080008BC
:100090009D0800089D0800089D0800089D080008AC
:1000A0009D0800089D0800089D0800089D0800089C
:1000B0009D0800089D080008000000009D08000839
:1000C0009D08000800000000000000009D080008D6
:1000D000000000009D0800089D08000800000000C6
:1000E0009D0800089D0800089D0800080000000009
:1000F0000000000000000000000000000000000000
:0C01000000000000000000005FF808F1A3
:10010C0010B5054C237833B9044B13B10448AFF345
:10011C0000800123237010BD0C00002000000000A3
:10012C008425000808B5034B1BB103490348AFF302
:10013C00008008BD0000000010000020842500088D
:10014C0080B500AF00F0A6FB00F050F800F0ECF822
:10015C0000F0A0F84FF400511D4800F07FFE03465C
:10016C00012B0ED11B4B1B6801331A4A1360194B20
:10017C001B6840F6B832934206D1174B01221A6025
:10018C0002E0144B00221A60134B1B68002B07D1A2
:10019C0001221249124801F03FFD00F03FF90DE039
:1001AC00012210490E4801F0C5FE00F0FDF941F2A4
:1001BC00883000F0D1FB084B00221A6010210A484D
:1001CC0000F07BFE4FF47A7000F0C6FBC2E700BF74
:1001DC00000C01402C0000202800002030000020E2
:1001EC0038000020340000200008014080B594B095
:1001FC0000AF07F1280328220021184602F0B4F9B9
:10020C0007F1140300221A605A609A60DA601A61CE
:10021C003B1D00221A605A609A60DA600A23BB62A6
:10022C000123BB631023FB6301233B6400237B642A
:10023C0007F12803184600F065FE0346002B01D099
:10024C0000F078FA0F237B610023BB610023FB6174
:10025C0000233B6200237B6207F114030021184644
:10026C0001F0D0F80346002B01D000F063FA012313
:10027C007B604FF40073BB603B1D184601F03CFAE9
:10028C000346002B01D000F055FA00BF5037BD4695
:10029C0080BD000080B582B000AF3B1D00210A4636
:1002AC001A800A469A7000233B601D4B1D4A1A6047
:1002BC001B4B4FF0FF325A60194B00229A601848C2
:1002CC0001F086FB0346002B01D000F033FA042327
:1002DC003B7100237B710023BB713B1D012219462E
:1002EC000F4801F001FC0346002B01D000F022FA6C
:1002FC0000233B7012237B701723BB702323FB70EE
:10030C003B4601221946064801F05EFD0346002BD0
:10031C0001D000F00FFA00BF0837BD4680BD00BF0A
:10032C00380000200028004080B588B000AF07F1ED
:10033C00100300221A605A609A60DA60344B9B6991
:10034C00334A43F010039361314B9B6903F0100364
:10035C00FB60FB682E4B9B692D4A43F02003936195
:10036C002B4B9B6903F02003BB60BB68284B9B693C
:10037C00274A43F004039361254B9B6903F0040364
:10038C007B607B68224B9B69214A43F00803936195
:10039C001F4B9B6903F008033B603B6800224FF442
:1003AC007F611C4800F071FD00227F211A4800F08B
:1003BC006CFD4FF47F633B6101237B610023BB61C8
:1003CC000223FB6107F110031946124800F0CCFB25
:1003DC007F233B6101237B610023BB610223FB6113
:1003EC0007F1100319460C4800F0BEFB4FF46043B4
:1003FC003B6100237B610023BB6107F110031946AD
:10040C00054800F0B1FB00BF2037BD4680BD00BFE2
:10041C000010024000080140000C014080B586B07D
:10042C0000AF5C4B1B7803F00F03DAB2594B1B780F
:10043C001B09DBB2194689000B445B00DBB2134489
:10044C00FB73544B5B7803F00F03DAB2514B5B78C0
:10045C001B09DBB2194689000B445B00DBB2134469
:10046C00BB734C4B9B7803F00F03DAB2494B9B7870
:10047C001B09DBB2194689000B445B00DBB2134449
:10048C007B73FB7B444AA2FB0323DB08DBB23B718F
:10049C00FA7B414BA3FB0213D9080B469B000B4480
:1004AC005B00D31ADBB27B71BB7B3B4AA2FB032301
:1004BC00DB08DBB2BB71BA7B374BA3FB0213D90849
:1004CC000B469B000B445B00D31ADBB2FB717B7BAE
:1004DC00314AA2FB0323DB08DBB23B727A7B2E4B47
:1004EC00A3FB0213D9080B469B000B445B00D31AE9
:1004FC00DBB27B7200237B6143E000233B613AE07B
:10050C003A1D7B6913441B781A46244B9B5C1A4694
:10051C003B6942FA03F3DBB203F001033B733B6923
:10052C009BB2013399B23B7B002B14BF01230023F8
:10053C00DBB21A461A4800F0A8FC7B699BB2403328
:10054C009BB201221946174800F09FFC00233B6028
:10055C0002E03B6801333B603B68632BF9DD7B6950
:10056C009BB240339BB2002219460E4800F08DFC22
:10057C003B6901333B613B69062BC1DD7B69013370
:10058C007B617B69052BB8DD00BF00BF1837BD460A
:10059C0080BD00BF30000020CDCCCCCC9C25000809
:1005AC00000C01400008014080B586B000AF5C4BE8
:1005BC009B7803F00F03DAB2594B9B781B09DBB223
:1005CC00194689000B445B00DBB21344FB73544B9C
:1005DC005B7803F00F03DAB2514B5B781B09DBB28B
:1005EC00194689000B445B00DBB21344BB734C4BC4
:1005FC00DB7803F00F03DAB2494BDB781B09DBB273
:10060C00194689000B445B00DBB213447B73FB7B04
:10061C00444AA2FB0323DB08DBB23B71FA7B414B60
:10062C00A3FB0213D9080B469B000B445B00D31AA7
:10063C00DBB27B71BB7B3B4AA2FB0323DB08DBB247
:10064C00BB71BA7B374BA3FB0213D9080B469B003B
:10065C000B445B00D31ADBB2FB717B7B314AA2FBF0
:10066C000323DB08DBB23B727A7B2E4BA3FB02131A
:10067C00D9080B469B000B445B00D31ADBB27B7290
:10068C0000237B6143E000233B613AE03A1D7B6928
:10069C0013441B781A46244B9B5C1A463B6942FA5E
:1006AC0003F3DBB203F001033B733B699BB20133F1
:1006BC0099B23B7B002B14BF01230023DBB21A46FB
:1006CC001A4800F0E2FB7B699BB240339BB20122DB
:1006DC001946174800F0D9FB00233B6002E03B6849
:1006EC0001333B603B68632BF9DD7B699BB2403384
:1006FC009BB2002219460E4800F0C7FB3B69013340
:10070C003B613B69062BC1DD7B6901337B617B69F6
:10071C00052BB8DD00BF00BF1837BD4680BD00BF3C
:10072C0034000020CDCCCCCC9C250008000C014022
:10073C000008014080B400AF72B600BFFEE70000B5
:10074C0080B485B000AF154B9B69144A43F001038C
:10075C009361124B9B6903F00103BB60BB680F4BA9
:10076C00DB690E4A43F08053D3610C4BDB6903F019
:10077C0080537B607B680A4B5B68FB60FB6823F0F3
:10078C00E063FB60FB6843F00073FB60044AFB68AA
:10079C00536000BF1437BD4680BC70470010024048
:1007AC000000014080B584B000AF78607B681B68A6
:1007BC000B4A934210D100F099FB0A4BDB69094AB2
:1007CC0043F00063D361074BDB6903F00063FB600C
:1007DC00FB68054B01221A6000BF1037BD4680BD77
:1007EC0000280040001002403C04424280B400AF9C
:1007FC00FEE780B400AFFEE780B400AFFEE780B444
:10080C0000AFFEE780B400AFFEE780B400AF00BFDE
:10081C00BD4680BC704780B400AF00BFBD4680BCF5
:10082C00704780B400AF00BFBD4680BC704780B538
:10083C0000AF00F075F800BF80BD80B400AF00BF02
:10084C00BD4680BC70470000FFF7F7FF0B480C4912
:10085C000C4A002302E0D458C4500433C4188C4210
:10086C00F9D3094A094C002301E013600432A24277
:10087C00FBD301F055FEFFF763FC7047000000202E
:10088C000C000020F02500080C0000205000002077
:10089C00FEE7000080B500AF084B1B68074A43F029
:1008AC0010031360032000F02BF90F2000F008F860
:1008BC00FFF746FF0023184680BD00BF0020024012
:1008CC0080B582B000AF7860124B1A68124B1B785F
:1008DC0019464FF47A73B3FBF1F3B2FBF3F31846FA
:1008EC0000F035F90346002B01D001230EE07B68A4
:1008FC000F2B0AD8002279684FF0FF3000F00BF96B
:10090C00064A7B681360002300E001231846083771
:10091C00BD4680BD0000002008000020040000201F
:10092C0080B400AF054B1B781A46054B1B6813446B
:10093C00034A136000BFBD4680BC7047080000200E
:10094C004C00002080B400AF024B1B681846BD461B
:10095C0080BC70474C00002080B584B000AF78603C
:10096C00FFF7F0FFB8607B68FB60FB68B3F1FF3FFB
:10097C0005D00A4B1B781A46FB681344FB6000BF7A
:10098C00FFF7E0FF0246BB68D31AFA689A42F7D821
:10099C0000BF00BF1037BD4680BD00BF080000205F
:1009AC0080B485B000AF78607B6803F00703FB6010
:1009BC000C4BDB68BB60BA684FF6FF031340BB609F
:1009CC00FB681A02BB68134343F0BF6343F4003364
:1009DC00BB60044ABB68D36000BF1437BD4680BC03
:1009EC00704700BF00ED00E080B400AF044BDB6843
:1009FC001B0A03F007031846BD4680BC704700BFB6
:100A0C0000ED00E080B483B000AF03463960FB71A9
:100A1C0097F90730002B0ADB3B68DAB20C4997F9DF
:100A2C0007301201D2B20B4483F800230AE03B6872
:100A3C00DAB20849FB7903F00F03043B1201D2B27E
:100A4C000B441A7600BF0C37BD4680BC704700BF04
:100A5C0000E100E000ED00E080B489B000AFF86088
:100A6C00B9607A60FB6803F00703FB61FB69C3F1B3
:100A7C000703042B28BF0423BB61FB690433062B3B
:100A8C0002D9FB69033B00E000237B614FF0FF328E
:100A9C00BB6902FA03F3DA43BB681A407B699A40DC
:100AAC004FF0FF317B6901FA03F3D9437B680B40AC
:100ABC00134318462437BD4680BC704780B582B0BE
:100ACC0000AF78607B68013BB3F1807F01D30123D9
:100ADC000FE00A4A7B68013B53600F214FF0FF3057
:100AEC00FFF790FF054B00229A60044B07221A6017
:100AFC00002318460837BD4680BD00BF10E000E05B
:100B0C0080B582B000AF78607868FFF749FF00BF0E
:100B1C000837BD4680BD80B586B000AF0346B960CE
:100B2C007A60FB7300237B61FFF75EFF78617A6864
:100B3C00B9687869FFF790FF024697F90F301146B4
:100B4C001846FFF75FFF00BF1837BD4680BD80B564
:100B5C0082B000AF78607868FFF7B0FF03461846A4
:100B6C000837BD4680BD000080B48BB000AF786004
:100B7C00396000237B6200233B6248E101227B6ADF
:100B8C0002FA03F3FB613B681B68FA691340BB6113
:100B9C00BA69FB699A4240F037813B685B68A34AAB
:100BAC0093425ED0A14A934275D8A14A934258D041
:100BBC009F4A93426FD89F4A934252D09D4A934288
:100BCC0069D89D4A93424CD09B4A934263D89B4A26
:100BDC00934246D0994A93425DD8122B2AD8122BB5
:100BEC0059D801A252F823F06F0C0008490C0008E8
:100BFC005B0C00089D0C0008A30C0008A30C00085B
:100C0C00A30C0008A30C0008A30C0008A30C0008FC
:100C1C00A30C0008A30C0008A30C0008A30C0008EC
:100C2C00A30C0008A30C0008A30C0008510C00082E
:100C3C00650C0008824A934213D02CE03B68DB68B9
:100C4C003B6229E03B68DB6804333B6224E03B6891
:100C5C00DB6808333B621FE03B68DB680C333B62AC
:100C6C001AE03B689B68002B02D104233B6213E023
:100C7C003B689B68012B05D108233B627B68FA69B2
:100C8C001A6109E008233B627B68FA695A6103E048
:100C9C0000233B6200E000BFBB69FF2B01D87B68DF
:100CAC0001E07B6804337B61BB69FF2B02D87B6A54
:100CBC009B0002E07B6A083B9B003B617B691A68E6
:100CCC000F213B6901FA03F3DB431A40396A3B6994
:100CDC0001FA03F31A437B691A603B685B6803F003
:100CEC008053002B00F09080564B9B69554A43F083
:100CFC0001039361534B9B6903F00103BB60BB6819
:100D0C00514A7B6A9B08023352F82330FB607B6AA2
:100D1C0003F003039B000F2202FA03F3DB43FA6890
:100D2C001340FB607B68494A93420DD07B68484A6C
:100D3C00934207D07B68474A934201D1022304E0D7
:100D4C00032302E0012300E000237A6A02F003028D
:100D5C0092009340FA681343FB603B497B6A9B0803
:100D6C000233FA6841F823203B685B6803F4801374
:100D7C00002B06D0384B9A683749BB6913438B60FC
:100D8C0006E0354B9A68BB69DB43334913408B60F3
:100D9C003B685B6803F40013002B06D02E4BDA681B
:100DAC002D49BB691343CB6006E02B4BDA68BB695A
:100DBC00DB4329491340CB603B685B6803F4003389
:100DCC00002B06D0244B5A682349BB6913434B6054
:100DDC0006E0214B5A68BB69DB431F4913404B604B
:100DEC003B685B6803F48033002B06D01A4B1A68FF
:100DFC001949BB6913430B6006E0174B1A68BB69B2
:100E0C00DB43154913400B607B6A01337B623B6803
:100E1C001A687B6A22FA03F3002B7FF4AFAE00BF93
:100E2C0000BF2C37BD4680BC704700BF000032109D
:100E3C0000003110000022100000211000001210E0
:100E4C000000111000100240000001400008014099
:100E5C00000C0140001001400004014080B485B03A
:100E6C0000AF78600B467B807B689A687B88134068
:100E7C00002B02D00123FB7301E00023FB73FB7BEF
:100E8C0018461437BD4680BC704780B483B000AFA1
:100E9C0078600B467B8013467B707B78002B03D0ED
:100EAC007A887B681A6103E07B881A047B681A6174
:100EBC0000BF0C37BD4680BC704780B485B000AF16
:100ECC0078600B467B807B68DB68FB607A88FB680C
:100EDC0013401A04FB68D9437B880B401A437B6888
:100EEC001A6100BF1437BD4680BC704780B400AF98
:100EFC00034B01221A6000BFBD4680BC704700BF87
:100F0C0020000E4280B586B000AF78607B68002B65
:100F1C0001D101236CE27B681B6803F00103002BF9
:100F2C0000F08780924B5B6803F00C03042B0CD011
:100F3C008F4B5B6803F00C03082B12D18C4B5B6856
:100F4C0003F48033B3F5803F0BD1894B1B6803F45A
:100F5C000033002B6CD07B685B68002B68D10123BD
:100F6C0046E27B685B68B3F5803F06D1804B1B681B
:100F7C007F4A43F4803313602EE07B685B68002B60
:100F8C000CD17B4B1B687A4A23F480331360784B6B
:100F9C001B68774A23F4802313601DE07B685B6831
:100FAC00B3F5A02F0CD1724B1B68714A43F480230C
:100FBC0013606F4B1B686E4A43F4803313600BE075
:100FCC006B4B1B686A4A23F480331360684B1B68B5
:100FDC00674A23F4802313607B685B68002B13D073
:100FEC00FFF7B0FC386108E0FFF7ACFC02463B6948
:100FFC00D31A642B01D90323FAE15D4B1B6803F46C
:10100C000033002BF0D014E0FFF79CFC386108E0B3
:10101C00FFF798FC02463B69D31A642B01D90323D2
:10102C00E6E1534B1B6803F40033002BF0D100E0D6
:10103C0000BF7B681B6803F00203002B63D04C4B92
:10104C005B6803F00C03002B0BD0494B5B6803F07F
:10105C000C03082B1CD1464B5B6803F48033002B2C
:10106C0016D1434B1B6803F00203002B05D07B68A1
:10107C001B69012B01D00123BAE13D4B1B6823F006
:10108C00F8027B685B69DB00394913430B603AE07B
:10109C007B681B69002B20D0364B01221A60FFF7AE
:1010AC0051FC386108E0FFF74DFC02463B69D31A4E
:1010BC00022B01D903239BE12D4B1B6803F0020388
:1010CC00002BF0D02A4B1B6823F0F8027B685B697D
:1010DC00DB00274913430B6015E0264B00221A60F6
:1010EC00FFF730FC386108E0FFF72CFC02463B6947
:1010FC00D31A022B01D903237AE11D4B1B6803F091
:10110C000203002BF0D17B681B6803F00803002B53
:10111C003AD07B689B69002B19D0174B01221A60BF
:10112C00FFF710FC386108E0FFF70CFC02463B6946
:10113C00D31A022B01D903235AE10D4B5B6A03F03E
:10114C000203002BF0D0012000F0B8FA1CE00A4B8F
:10115C0000221A60FFF7F6FB38610FE0FFF7F2FB95
:10116C0002463B69D31A022B08D9032340E100BF86
:10117C000010024000004242800442429E4B5B6AD7
:10118C0003F00203002BE9D17B681B6803F0040316
:10119C00002B00F0A6800023FB75974BDB6903F056
:1011AC008053002B0DD1944BDB69934A43F0805351
:1011BC00D361914BDB6903F08053BB60BB680123A7
:1011CC00FB758E4B1B6803F48073002B18D18B4B73
:1011DC001B688A4A43F480731360FFF7B3FB3861D2
:1011EC0008E0FFF7AFFB02463B69D31A642B01D929
:1011FC000323FDE0814B1B6803F48073002BF0D0BC
:10120C007B68DB68012B06D17B4B1B6A7A4A43F067
:10121C00010313622DE07B68DB68002B0CD1764B4D
:10122C001B6A754A23F001031362734B1B6A724AE3
:10123C0023F0040313621CE07B68DB68052B0CD1E4
:10124C006D4B1B6A6C4A43F0040313626A4B1B6AB6
:10125C00694A43F0010313620BE0674B1B6A664A51
:10126C0023F001031362644B1B6A634A23F00403EB
:10127C0013627B68DB68002B15D0FFF763FB3861CA
:10128C000AE0FFF75FFB02463B69D31A41F2883252
:10129C00934201D90323ABE0574B1B6A03F00203C3
:1012AC00002BEED014E0FFF74DFB38610AE0FFF79E
:1012BC0049FB02463B69D31A41F28832934201D969
:1012CC00032395E04C4B1B6A03F00203002BEED179
:1012DC00FB7D012B05D1484BDB69474A23F080533A
:1012EC00D3617B68DB69002B00F08180424B5B682B
:1012FC0003F00C03082B61D07B68DB69022B46D111
:10130C003F4B00221A60FFF71DFB386108E0FFF726
:10131C0019FB02463B69D31A022B01D9032367E060
:10132C00354B1B6803F00073002BF0D17B681B6AF4
:10133C00B3F5803F08D1304B5B6823F400327B68F7
:10134C009B682D4913434B602B4B5B6823F4741241
:10135C007B68196A7B685B6A0B43274913434B60B4
:10136C00274B01221A60FFF7EDFA386108E0FFF70E
:10137C00E9FA02463B69D31A022B01D9032337E061
:10138C001D4B1B6803F00073002BF0D02FE01C4B9F
:10139C0000221A60FFF7D6FA386108E0FFF7D2FA9C
:1013AC0002463B69D31A022B01D9032320E0124BCE
:1013BC001B6803F00073002BF0D118E07B68DB692D
:1013CC00012B01D1012313E00B4B5B68FB60FB6825
:1013DC0003F480327B681B6A9A4206D1FB6803F4E3
:1013EC0070127B685B6A9A4201D0012300E00023F3
:1013FC0018461837BD4680BD0010024000700040F2
:10140C006000424280B584B000AF786039607B6880
:10141C00002B01D10123D0E06A4B1B6803F00703BA
:10142C003A689A4210D9674B1B6823F0070265494A
:10143C003B6813430B60634B1B6803F007033A686C
:10144C009A4201D00123B8E07B681B6803F00203C9
:10145C00002B20D07B681B6803F00403002B05D005
:10146C00594B5B68584A43F4E06353607B681B68D4
:10147C0003F00803002B05D0534B5B68524A43F42E
:10148C0060535360504B5B6823F0F0027B689B68A1
:10149C004D4913434B607B681B6803F00103002B21
:1014AC0040D07B685B68012B07D1474B1B6803F46A
:1014BC000033002B15D101237FE07B685B68022B86
:1014CC0007D1414B1B6803F00073002B09D101239A
:1014DC0073E03D4B1B6803F00203002B01D1012389
:1014EC006BE0394B5B6823F003027B685B68364921
:1014FC0013434B60FFF726FAF8600AE0FFF722FA75
:10150C000246FB68D31A41F28832934201D9032375
:10151C0053E02D4B5B6803F00C027B685B689B000F
:10152C009A42EBD1274B1B6803F007033A689A42A7
:10153C0010D2244B1B6823F0070222493B6813434B
:10154C000B60204B1B6803F007033A689A4201D0EA
:10155C00012332E07B681B6803F00403002B08D0E6
:10156C00194B5B6823F4E0627B68DB681649134314
:10157C004B607B681B6803F00803002B09D0124BEF
:10158C005B6823F460527B681B69DB000E491343D4
:10159C004B6000F021F802460B4B5B681B0903F013
:1015AC000F030A49CB5C22FA03F3094A1360094B77
:1015BC001B681846FFF784F9002318461037BD4600
:1015CC0080BD00BF0020024000100240A82500088A
:1015DC00000000200400002080B487B000AF00237E
:1015EC00FB600023BB6000237B6100237B60002336
:1015FC003B611E4B5B68FB60FB6803F00C03042B28
:10160C0002D0082B03D027E0194B3B6127E0FB6885
:10161C009B0C03F00F03174AD35C7B60FB6803F44D
:10162C008033002B10D0114B5B685B0C03F0010373
:10163C00114AD35CBB607B680D4A02FB03F2BB68AA
:10164C00B2FBF3F37B6104E07B680C4A02FB03F30F
:10165C007B617B693B6102E0054B3B6100BF3B69F1
:10166C0018461C37BD4680BC704700BF00100240B6
:10167C0000127A00C0250008D025000800093D00A2
:10168C0080B400AF024B1B681846BD4680BC704747
:10169C000000002080B500AFFFF7F2FF0246054BBB
:1016AC005B68DB0A03F007030349CB5C22FA03F304
:1016BC00184680BD00100240B825000880B485B0E3
:1016CC0000AF78600A4B1B680A4AA2FB03235B0A33
:1016DC007A6802FB03F3FB6000BFFB685A1EFA60DA
:1016EC00002BF9D100BF00BF1437BD4680BC70473A
:1016FC0000000020D34D621080B586B000AF78603A
:10170C0000233B610023FB607B681B6803F0010333
:10171C00002B7DD00023FB754F4BDB6903F080530E
:10172C00002B0DD14C4BDB694B4A43F08053D361FA
:10173C00494BDB6903F08053BB60BB680123FB752D
:10174C00464B1B6803F48073002B18D1434B1B686A
:10175C00424A43F480731360FFF7F4F8386108E0F1
:10176C00FFF7F0F802463B69D31A642B01D9032327
:10177C006DE03A4B1B6803F48073002BF0D0364BB2
:10178C001B6A03F44073FB60FB68002B2ED07B6854
:10179C005B6803F44073FA689A4227D02E4B1B6A9D
:1017AC0023F44073FB602E4B01221A602C4B002259
:1017BC001A60294AFB681362FB6803F00103002BD3
:1017CC0014D0FFF7BFF838610AE0FFF7BBF8024608
:1017DC003B69D31A41F28832934201D9032336E094
:1017EC001D4B1B6A03F00203002BEED01A4B1B6A35
:1017FC0023F440727B685B68174913430B62FB7DD3
:10180C00012B05D1144BDB69134A23F08053D361B0
:10181C007B681B6803F00203002B08D00E4B5B683F
:10182C0023F440427B689B680B4913434B607B68F5
:10183C001B6803F01003002B08D0074B5B6823F4E4
:10184C0080027B68DB68044913434B600023184615
:10185C001837BD4680BD00BF00100240007000402C
:10186C004004424280B588B000AF786000237B61B1
:10187C000023FB6100233B610023FB600023BB6161
:10188C007B68102B0AD07B68102B00F28A807B6857
:10189C00012B45D07B68022B75D082E0464B5B68F0
:1018AC00FB60454B1B6803F08073002B7BD0FB68FF
:1018BC009B0C03F00F03414AD35C3B61FB6803F4C0
:1018CC008033002B15D03C4B5B685B0C03F00103A1
:1018DC003B4AD35C7B61FB6803F48033002B0DD057
:1018EC00384A7B69B2FBF3F23B6902FB03F3FB6101
:1018FC0004E03B69344A02FB03F3FB612E4B5B684B
:10190C0003F48003B3F5800F02D1FB69BB614AE09D
:10191C00FB695B002D4AA2FB03235B08BB6142E021
:10192C00254B1B6AFB60FB6803F44073B3F5807FA7
:10193C0008D1FB6803F00203002B03D04FF40043E3
:10194C00BB611FE0FB6803F44073B3F5007F09D162
:10195C00194B5B6A03F00203002B03D049F640439A
:10196C00BB610FE0FB6803F44073B3F5407F1CD1FF
:10197C00114B1B6803F40033002B16D04FF2244399
:10198C00BB6112E011E0FFF785FE02460A4B5B6873
:10199C009B0B03F0030301335B00B2FBF3F3BB615E
:1019AC0004E000BF02E000BF00E000BFBB691846C6
:1019BC002037BD4680BD00BF00100240D425000872
:1019CC00E425000800127A0000093D00ABAAAAAA7F
:1019DC0080B584B000AF78600023FB607B68002B7F
:1019EC0001D101237AE07B685B7CDBB2002B05D153
:1019FC007B6800221A747868FEF7D4FE7B6802229A
:101A0C005A74786800F0EAFA0346002B04D07B681D
:101A1C0004225A74012361E0786800F0A3FB0346AA
:101A2C00002B04D07B6804225A74012356E07B6897
:101A3C001B685A687B681B6822F007025A607B6837
:101A4C009B68002B05D0274B1B6B264A23F0010308
:101A5C001363244BDB6A23F460727B689B68214917
:101A6C001343CB627B685B68B3F1FF3F03D07B68A9
:101A7C005B68FB600EE00120FFF7F4FEF860FB688A
:101A8C00002B04D17B6804225A74012326E0FB68E6
:101A9C00013BFB60FB681A0C7B681B6802F00F02B1
:101AAC009A607B681B68FA6892B2DA60786800F01A
:101ABC0081FB0346002B04D07B6804225A7401235B
:101ACC000CE07B680022DA737B6801225A737B6816
:101ADC0001229A737B6801225A740023184610372E
:101AEC00BD4680BD006C004090B587B000AFF8607B
:101AFC00B9607A6000237B6100233B61FB68002B9B
:101B0C0002D0BB68002B01D1012380E0FB681B7C59
:101B1C00012B01D102237AE0FB6801221A74FB68C5
:101B2C0002225A747B68002B13D1BB681B781A46AF
:101B3C004FF4616303FB02F2BB685B7819460B46FA
:101B4C001B015B1A9B001344BA68927813447B61A7
:101B5C001EE0BB681B78184600F071FB03461A4662
:101B6C004FF4616303FB02F4BB685B78184600F02A
:101B7C0066FB03461A4613461B019B1A9B001C442A
:101B8C00BB689B78184600F05AFB034623447B61E4
:101B9C007969F86800F07FFA0346002B07D0FB68E0
:101BAC0004225A74FB6800221A7401232FE0FB688C
:101BBC001B685A68FB681B6822F005025A60F868BB
:101BCC0000F090FA38613B69B3F1FF3F18D03A69E5
:101BDC007B699A4214D23B6903F5A83303F5C073B1
:101BEC003B613969F86800F096FA0346002B07D080
:101BFC00FB6804225A74FB6800221A74012306E065
:101C0C00FB6801225A74FB6800221A7400231846E0
:101C1C001C37BD4690BD000080B588B000AFF860A1
:101C2C00B9607A600023BB610023FB6100237B61F8
:101C3C0000233B61FB68002B02D0BB68002B01D159
:101C4C000123B5E0FB681B685B6803F00403002B01
:101C5C0001D00123ACE0F86800F0EDF9B861BB6984
:101C6C00554AA2FB0323DB0A3B61BA69524BA3FB27
:101C7C000213DB0A4FF4616101FB03F3D31A4F4AE1
:101C8C00A2FB03235B09DAB2BB685A70BB694A4AF0
:101C9C00A2FB0312D20A4FF4616101FB02F29A1A01
:101CAC00464BA3FB021359090B461B015B1A9B0005
:101CBC00D11ACAB2BB689A703B69172B55D93B69CC
:101CCC003F4AA2FB03231B097B6139693C4BA3FBF5
:101CDC0001231A0913465B001344DB00CA1AD2B263
:101CEC00BB681A70F86800F0FDF9F861FB69B3F194
:101CFC00FF3F08D0FA69BB699A4204D9FA69BB69FB
:101D0C00D31AFB6102E04FF0FF33FB617B692D4A74
:101D1C0002FB03F3BA69D31ABB61B969F86800F026
:101D2C00BAF90346002B01D0012341E0FB69B3F162
:101D3C00FF3F0CD0FA69BB691344FB61F969F86881
:101D4C0000F0E9F90346002B0AD0012330E0F969D1
:101D5C00F86800F0E0F90346002B01D0012327E0DE
:101D6C007969F86800F088FA03E03B69DAB2BB687D
:101D7C001A707B68002B1AD0BB681B78184600F0D1
:101D8C0041FA03461A46BB681A70BB685B78184662
:101D9C0000F038FA03461A46BB685A70BB689B7849
:101DAC00184600F02FFA03461A46BB689A700023B7
:101DBC0018462037BD4680BDC5B3A2918988888856
:101DCC00ABAAAAAA8051010080B588B000AFF86018
:101DDC00B9607A600023FB610023BB6100237B6147
:101DEC00FB68002B02D0BB68002B01D1012397E0CC
:101DFC00FB681B7C012B01D1022391E0FB680122C3
:101E0C001A74FB6802225A747B68002B0CD1BB68D5
:101E1C00DA78FB68DA73BB685A78FB685A73BB686C
:101E2C009A78FB689A731AE0BB68DB78184600F066
:101E3C0006FA03461A46FB68DA73BB685B781846E9
:101E4C0000F0FDF903461A46FB685A73BB689B7891
:101E5C00184600F0F4F903461A46FB689A73FB68BF
:101E6C00DB7B1846FB68597BFB689B7B1A4600F0B2
:101E7C00DFFA03461A46FB681A73FB681A7BBB68C9
:101E8C001A70F86800F0D7F8F861FB69264AA2FBD3
:101E9C000323DB0A7B617B69182B3AD97B69234AC4
:101EAC00A2FB03231B09224A02FB03F3FA69D31A90
:101EBC00FB61F969F86800F0EEF80346002B07D0D7
:101ECC00FB6804225A74FB6800221A74012327E071
:101EDC00F86800F007F9B861BB69B3F1FF3F18D09F
:101EEC00BA69FB699A4214D2BB6903F5A83303F5AE
:101EFC00C073BB61B969F86800F00DF90346002B9B
:101F0C0007D0FB6804225A74FB6800221A74012360
:101F1C0006E0FB6801225A74FB6800221A74002345
:101F2C0018462037BD4680BDC5B3A291ABAAAAAA5C
:101F3C008051010080B586B000AFF860B9607A605E
:101F4C0007F1140300210A461A800A469A70FB68AE
:101F5C00002B02D0BB68002B01D101233AE007F122
:101F6C00140300221946F868FFF756FE0346002BAF
:101F7C0001D001232EE0FB681A7BBB681A70FB684A
:101F8C00DA7BBB68DA70FB685A7BBB685A70FB68FB
:101F9C009A7BBB689A707B68002B1AD0BB68DB7885
:101FAC00184600F02FF903461A46BB68DA70BB6876
:101FBC005B78184600F026F903461A46BB685A703F
:101FCC00BB689B78184600F01DF903461A46BB689F
:101FDC009A70002318461837BD4680BD80B584B072
:101FEC0000AF78600023FB607B68002B01D10123DC
:101FFC001DE07B681B685A687B681B6822F008022E
:10200C005A60FEF79FFCF86009E0FEF79BFC024665
:10201C00FB68D31AB3F57A7F01D9032307E07B68F9
:10202C001B685B6803F00803002BEED000231846F6
:10203C001037BD4680BD80B487B000AF78600023F8
:10204C007B8200233B820023FB8100237B617B6826
:10205C001B689B697B827B681B68DB69FB817B68E7
:10206C001B689B693B827A8A3B8A9A4208D03B8ADE
:10207C001A047B681B68DB699BB213437B6104E029
:10208C007B8A1A04FB8913437B617B6918461C37D6
:10209C00BD4680BC704780B584B000AF78603960B5
:1020AC000023FB73786800F05DF80346002B02D028
:1020BC000123FB7311E07B681B683A68120C9A6170
:1020CC007B681B683A6892B2DA61786800F072F843
:1020DC000346002B01D00123FB73FB7B1846103702
:1020EC00BD4680BD80B485B000AF78600023FB8115
:1020FC000023BB817B681B681B6AFB817B681B68A8
:10210C005B6ABB81FB891A04BB89134318461437DD
:10211C00BD4680BC704780B584B000AF7860396034
:10212C000023FB73786800F01DF80346002B02D0E7
:10213C000123FB7311E07B681B683A68120C1A626E
:10214C007B681B683A6892B25A62786800F032F881
:10215C000346002B01D00123FB73FB7B1846103781
:10216C00BD4680BD80B584B000AF78600023FB60B5
:10217C00FEF7E8FBF86009E0FEF7E4FB0246FB68BB
:10218C00D31AB3F57A7F01D903230FE07B681B6860
:10219C005B6803F02003002BEED07B681B685A6849
:1021AC007B681B6842F010025A60002318461037F7
:1021BC00BD4680BD80B584B000AF78600023FB6065
:1021CC007B681B685A687B681B6822F010025A6097
:1021DC00FEF7B8FBF86009E0FEF7B4FB0246FB68BB
:1021EC00D31AB3F57A7F01D9032307E07B681B6808
:1021FC005B6803F02003002BEED000231846103749
:10220C00BD4680BD80B485B000AF0346FB71002392
:10221C00FB6005E0FB680133FB60FB790A3BFB715B
:10222C00FB79092BF6D8FB68DBB21B01DAB2FB7920
:10223C001343DBB218461437BD4680BC704780B4DC
:10224C0085B000AF0346FB710023FB60FB791B09D3
:10225C00DBB21A4613469B0013445B00FB60FB7910
:10226C0003F00F03DAB2FB68DBB21344DBB218469F
:10227C001437BD4680BC704780B586B000AF78601F
:10228C00396000237B6100233B610023FB6000234A
:10229C00BB607B68DB7B7B617B685B7B3B617B68CA
:1022AC009B7BFB600023BB606FE03B69012B11D073
:1022BC003B69032B0ED03B69052B0BD03B69072BDD
:1022CC0008D03B69082B05D03B690A2B02D03B692F
:1022DC000C2B17D1FB681E2B03D8FB680133FB605A
:1022EC0050E03B690C2B05D03B6901333B6101236A
:1022FC00FB6047E001233B610123FB607B690133F9
:10230C007B613FE03B69042B08D03B69062B05D071
:10231C003B69092B02D03B690B2B0CD1FB681D2BA5
:10232C0003D8FB680133FB602CE03B6901333B6154
:10233C000123FB6026E03B69022B23D1FB681B2B9E
:10234C0003D8FB680133FB601CE0FB681C2B11D12C
:10235C007B699BB2184600F039F80346002B03D07A
:10236C00FB680133FB600DE03B6901333B610123EA
:10237C00FB6007E0FB681D2B04D13B6901333B611B
:10238C000123FB60BB680133BB60BA683B689A42AF
:10239C008BD37B69DAB27B68DA733B69DAB27B6820
:1023AC005A73FB68DAB27B689A733B69DBB2FA68E2
:1023BC00D2B21946786900F03BF803461A467B689E
:1023CC001A7300BF1837BD4680BD000080B483B0BF
:1023DC0000AF0346FB80FB8803F003039BB2002B8A
:1023EC0001D000231DE0FB88104AA2FB0312520906
:1023FC00642101FB02F29B1A9BB2002B01D001233A
:10240C000FE0FB88094AA2FB0312D2094FF4C871F2
:10241C0001FB02F29B1A9BB2002B01D1012300E0BD
:10242C00002318460C37BD4680BC70471F85EB5106
:10243C0080B485B000AF78600B46FB701346BB7060
:10244C000023BB600023FB607B6803F5FA63BB6071
:10245C00FB78022B2DD8FA7813465B001344DB0073
:10246C009B1A2C4AA2FB03235A08BB781A44BB685C
:10247C001A44BB68013B9B081A44BB68013B2649C4
:10248C00A1FB03135B09D21ABB68013B2249A1FBD8
:10249C000313DB0913441A1D204BA3FB0213D11A9F
:1024AC0049080B4499080B46DB005B1AD31AFB60F6
:1024BC0029E0FA7813465B001344DB009B1A154A9B
:1024CC00A2FB03235A08BB781A44BB681A44BB68A6
:1024DC009B081A44BB681049A1FB03135B09D21A71
:1024EC00BB680D49A1FB0313DB0913449A1C0B4B6E
:1024FC00A3FB0213D11A49080B4499080B46DB00C5
:10250C005B1AD31AFB60FB68DBB218461437BD4666
:10251C0080BC7047398EE3381F85EB5125499224D6
:10252C0070B500260C4D0D4C641BA410A64209D1AD
:10253C0000F022F800260A4D0A4C641BA410A64297
:10254C0005D170BD55F8043B98470136EEE755F8B8
:10255C00043B98470136F2E7E8250008E825000817
:10256C00E8250008EC25000803460244934200D1FC
:10257C00704703F8011BF9E7F8B500BFF8BC08BCBD
:10258C009E467047F8B500BFF8BC08BC9E46704725
:10259C00C0F9A4B0999282F880900000000000006D
:1025AC0000000000010203040607080900000000F7
:1025BC000102030402030405060708090A0B0C0DAB
:1025CC000E0F101001020000020304050607080993
:0C25DC000A0B0C0D0E0F10100102000085
:0425E80031010008B5
:0425EC000D010008D5
:0C25F0000024F4001000000001000000B6
:040000050800085592
:00000001FF
